{
  "_format": "hh-sol-artifact-1",
  "contractName": "CentralVault",
  "sourceName": "contracts/CentralVault.sol",
  "abi": [
    {
      "inputs": [
        {
          "internalType": "contract IERC20",
          "name": "_centralTokenAddress",
          "type": "address"
        }
      ],
      "stateMutability": "nonpayable",
      "type": "constructor"
    },
    {
      "anonymous": false,
      "inputs": [
        {
          "indexed": false,
          "internalType": "address",
          "name": "user",
          "type": "address"
        },
        {
          "indexed": false,
          "internalType": "uint256",
          "name": "amount",
          "type": "uint256"
        }
      ],
      "name": "DepositTokens",
      "type": "event"
    },
    {
      "anonymous": false,
      "inputs": [
        {
          "indexed": true,
          "internalType": "address",
          "name": "previousOwner",
          "type": "address"
        },
        {
          "indexed": true,
          "internalType": "address",
          "name": "newOwner",
          "type": "address"
        }
      ],
      "name": "OwnershipTransferred",
      "type": "event"
    },
    {
      "anonymous": false,
      "inputs": [
        {
          "indexed": false,
          "internalType": "address",
          "name": "user",
          "type": "address"
        },
        {
          "indexed": false,
          "internalType": "uint256",
          "name": "amount",
          "type": "uint256"
        },
        {
          "indexed": false,
          "internalType": "uint256",
          "name": "vaultTokens",
          "type": "uint256"
        }
      ],
      "name": "WithdrawTokens",
      "type": "event"
    },
    {
      "inputs": [
        {
          "internalType": "uint256",
          "name": "amount",
          "type": "uint256"
        }
      ],
      "name": "DepositCentralTokens",
      "outputs": [],
      "stateMutability": "nonpayable",
      "type": "function"
    },
    {
      "inputs": [],
      "name": "centralTokenAddress",
      "outputs": [
        {
          "internalType": "contract IERC20",
          "name": "",
          "type": "address"
        }
      ],
      "stateMutability": "view",
      "type": "function"
    },
    {
      "inputs": [],
      "name": "checkUserSlab",
      "outputs": [
        {
          "components": [
            {
              "internalType": "address",
              "name": "user",
              "type": "address"
            },
            {
              "internalType": "enum CentralVault.slabStatus",
              "name": "slabType",
              "type": "uint8"
            }
          ],
          "internalType": "struct CentralVault.userDetails",
          "name": "",
          "type": "tuple"
        }
      ],
      "stateMutability": "view",
      "type": "function"
    },
    {
      "inputs": [],
      "name": "checkVaultCapacity",
      "outputs": [
        {
          "internalType": "uint256",
          "name": "",
          "type": "uint256"
        }
      ],
      "stateMutability": "view",
      "type": "function"
    },
    {
      "inputs": [],
      "name": "owner",
      "outputs": [
        {
          "internalType": "address",
          "name": "",
          "type": "address"
        }
      ],
      "stateMutability": "view",
      "type": "function"
    },
    {
      "inputs": [],
      "name": "renounceOwnership",
      "outputs": [],
      "stateMutability": "nonpayable",
      "type": "function"
    },
    {
      "inputs": [
        {
          "internalType": "uint256[5]",
          "name": "_capacities",
          "type": "uint256[5]"
        }
      ],
      "name": "setSlabCapacities",
      "outputs": [],
      "stateMutability": "nonpayable",
      "type": "function"
    },
    {
      "inputs": [
        {
          "internalType": "uint256",
          "name": "",
          "type": "uint256"
        }
      ],
      "name": "slabs",
      "outputs": [
        {
          "internalType": "enum CentralVault.slabStatus",
          "name": "capacitySlab",
          "type": "uint8"
        },
        {
          "internalType": "uint256",
          "name": "slabAmount",
          "type": "uint256"
        }
      ],
      "stateMutability": "view",
      "type": "function"
    },
    {
      "inputs": [
        {
          "internalType": "address",
          "name": "newOwner",
          "type": "address"
        }
      ],
      "name": "transferOwnership",
      "outputs": [],
      "stateMutability": "nonpayable",
      "type": "function"
    }
  ],
  "bytecode": "0x60806040523480156200001157600080fd5b50604051620019dc380380620019dc8339818101604052810190620000379190620002b6565b620000576200004b620000af60201b60201c565b620000b760201b60201c565b80600160006101000a81548173ffffffffffffffffffffffffffffffffffffffff021916908373ffffffffffffffffffffffffffffffffffffffff160217905550620000a86200017b60201b60201c565b5062000317565b600033905090565b60008060009054906101000a900473ffffffffffffffffffffffffffffffffffffffff169050816000806101000a81548173ffffffffffffffffffffffffffffffffffffffff021916908373ffffffffffffffffffffffffffffffffffffffff1602179055508173ffffffffffffffffffffffffffffffffffffffff168173ffffffffffffffffffffffffffffffffffffffff167f8be0079c531659141344cd1fd0a4f28419497f9722a3daafe3b4186f6b6457e060405160405180910390a35050565b60646004600060058110620001955762000194620002e8565b5b600202016001018190555060c86004600160058110620001ba57620001b9620002e8565b5b600202016001018190555061012c6004600260058110620001e057620001df620002e8565b5b60020201600101819055506101906004600360058110620002065762000205620002e8565b5b60020201600101819055506101f4600480600581106200022b576200022a620002e8565b5b6002020160010181905550565b600080fd5b600073ffffffffffffffffffffffffffffffffffffffff82169050919050565b60006200026a826200023d565b9050919050565b60006200027e826200025d565b9050919050565b620002908162000271565b81146200029c57600080fd5b50565b600081519050620002b08162000285565b92915050565b600060208284031215620002cf57620002ce62000238565b5b6000620002df848285016200029f565b91505092915050565b7f4e487b7100000000000000000000000000000000000000000000000000000000600052603260045260246000fd5b6116b580620003276000396000f3fe608060405234801561001057600080fd5b50600436106100935760003560e01c8063715018a611610066578063715018a61461011f5780638da5cb5b146101295780639bfc6af414610147578063e2f5722e14610165578063f2fde38b1461018357610093565b80630eaaa6e91461009857806313f81cb0146100b45780633694a962146100d2578063515477cb14610103575b600080fd5b6100b260048036038101906100ad9190611064565b61019f565b005b6100bc6102c6565b6040516100c99190611110565b60405180910390f35b6100ec60048036038101906100e7919061112b565b6102ec565b6040516100fa9291906111de565b60405180910390f35b61011d6004803603810190610118919061112b565b610323565b005b610127610b9c565b005b610131610bb0565b60405161013e9190611228565b60405180910390f35b61014f610bd9565b60405161015c9190611243565b60405180910390f35b61016d610be1565b60405161017a91906112ab565b60405180910390f35b61019d600480360381019061019891906112f2565b610cc9565b005b6101a7610d4c565b806000600581106101bb576101ba61131f565b5b602002015160046000600581106101d5576101d461131f565b5b6002020160010181905550806001600581106101f4576101f361131f565b5b6020020151600460016005811061020e5761020d61131f565b5b60020201600101819055508060026005811061022d5761022c61131f565b5b602002015160046002600581106102475761024661131f565b5b6002020160010181905550806003600581106102665761026561131f565b5b602002015160046003600581106102805761027f61131f565b5b60020201600101819055508060046005811061029f5761029e61131f565b5b6020020151600480600581106102b8576102b761131f565b5b600202016001018190555050565b600160009054906101000a900473ffffffffffffffffffffffffffffffffffffffff1681565b600481600581106102fc57600080fd5b600202016000915090508060000160009054906101000a900460ff16908060010154905082565b80600160009054906101000a900473ffffffffffffffffffffffffffffffffffffffff1673ffffffffffffffffffffffffffffffffffffffff166370a08231336040518263ffffffff1660e01b815260040161037f9190611228565b602060405180830381865afa15801561039c573d6000803e3d6000fd5b505050506040513d601f19601f820116820180604052508101906103c09190611363565b1015610401576040517f08c379a00000000000000000000000000000000000000000000000000000000081526004016103f890611439565b60405180910390fd5b600160009054906101000a900473ffffffffffffffffffffffffffffffffffffffff1673ffffffffffffffffffffffffffffffffffffffff1663095ea7b330836040518363ffffffff1660e01b815260040161045e929190611459565b6020604051808303816000875af115801561047d573d6000803e3d6000fd5b505050506040513d601f19601f820116820180604052508101906104a191906114ba565b6104aa57600080fd5b600160009054906101000a900473ffffffffffffffffffffffffffffffffffffffff1673ffffffffffffffffffffffffffffffffffffffff166323b872dd3330846040518463ffffffff1660e01b8152600401610509939291906114e7565b6020604051808303816000875af1158015610528573d6000803e3d6000fd5b505050506040513d601f19601f8201168201806040525081019061054c91906114ba565b5080600260003373ffffffffffffffffffffffffffffffffffffffff1673ffffffffffffffffffffffffffffffffffffffff1681526020019081526020016000206000600160009054906101000a900473ffffffffffffffffffffffffffffffffffffffff1673ffffffffffffffffffffffffffffffffffffffff1673ffffffffffffffffffffffffffffffffffffffff16815260200190815260200160002060008282546105fb919061154d565b925050819055506101f4600260003373ffffffffffffffffffffffffffffffffffffffff1673ffffffffffffffffffffffffffffffffffffffff1681526020019081526020016000206000600160009054906101000a900473ffffffffffffffffffffffffffffffffffffffff1673ffffffffffffffffffffffffffffffffffffffff1673ffffffffffffffffffffffffffffffffffffffff1681526020019081526020016000205411610715576004600360003373ffffffffffffffffffffffffffffffffffffffff1673ffffffffffffffffffffffffffffffffffffffff16815260200190815260200160002060000160146101000a81548160ff0219169083600481111561070f5761070e611158565b5b02179055505b610384600260003373ffffffffffffffffffffffffffffffffffffffff1673ffffffffffffffffffffffffffffffffffffffff1681526020019081526020016000206000600160009054906101000a900473ffffffffffffffffffffffffffffffffffffffff1673ffffffffffffffffffffffffffffffffffffffff1673ffffffffffffffffffffffffffffffffffffffff16815260200190815260200160002054116108275760038060003373ffffffffffffffffffffffffffffffffffffffff1673ffffffffffffffffffffffffffffffffffffffff16815260200190815260200160002060000160146101000a81548160ff0219169083600481111561082157610820611158565b5b02179055505b6104b0600260003373ffffffffffffffffffffffffffffffffffffffff1673ffffffffffffffffffffffffffffffffffffffff1681526020019081526020016000206000600160009054906101000a900473ffffffffffffffffffffffffffffffffffffffff1673ffffffffffffffffffffffffffffffffffffffff1673ffffffffffffffffffffffffffffffffffffffff168152602001908152602001600020541161093a576002600360003373ffffffffffffffffffffffffffffffffffffffff1673ffffffffffffffffffffffffffffffffffffffff16815260200190815260200160002060000160146101000a81548160ff0219169083600481111561093457610933611158565b5b02179055505b610578600260003373ffffffffffffffffffffffffffffffffffffffff1673ffffffffffffffffffffffffffffffffffffffff1681526020019081526020016000206000600160009054906101000a900473ffffffffffffffffffffffffffffffffffffffff1673ffffffffffffffffffffffffffffffffffffffff1673ffffffffffffffffffffffffffffffffffffffff1681526020019081526020016000205411610a4d576001600360003373ffffffffffffffffffffffffffffffffffffffff1673ffffffffffffffffffffffffffffffffffffffff16815260200190815260200160002060000160146101000a81548160ff02191690836004811115610a4757610a46611158565b5b02179055505b6105dc600260003373ffffffffffffffffffffffffffffffffffffffff1673ffffffffffffffffffffffffffffffffffffffff1681526020019081526020016000206000600160009054906101000a900473ffffffffffffffffffffffffffffffffffffffff1673ffffffffffffffffffffffffffffffffffffffff1673ffffffffffffffffffffffffffffffffffffffff1681526020019081526020016000205411610b60576000600360003373ffffffffffffffffffffffffffffffffffffffff1673ffffffffffffffffffffffffffffffffffffffff16815260200190815260200160002060000160146101000a81548160ff02191690836004811115610b5a57610b59611158565b5b02179055505b7fe3a6e26dceff30d982e183d0ce051fb5b791f2108785a9d440d417247cef5b413382604051610b91929190611459565b60405180910390a150565b610ba4610d4c565b610bae6000610dca565b565b60008060009054906101000a900473ffffffffffffffffffffffffffffffffffffffff16905090565b600047905090565b610be9610e96565b600360003373ffffffffffffffffffffffffffffffffffffffff1673ffffffffffffffffffffffffffffffffffffffff1681526020019081526020016000206040518060400160405290816000820160009054906101000a900473ffffffffffffffffffffffffffffffffffffffff1673ffffffffffffffffffffffffffffffffffffffff1673ffffffffffffffffffffffffffffffffffffffff1681526020016000820160149054906101000a900460ff166004811115610cae57610cad611158565b5b6004811115610cc057610cbf611158565b5b81525050905090565b610cd1610d4c565b600073ffffffffffffffffffffffffffffffffffffffff168173ffffffffffffffffffffffffffffffffffffffff1603610d40576040517f08c379a0000000000000000000000000000000000000000000000000000000008152600401610d37906115f3565b60405180910390fd5b610d4981610dca565b50565b610d54610e8e565b73ffffffffffffffffffffffffffffffffffffffff16610d72610bb0565b73ffffffffffffffffffffffffffffffffffffffff1614610dc8576040517f08c379a0000000000000000000000000000000000000000000000000000000008152600401610dbf9061165f565b60405180910390fd5b565b60008060009054906101000a900473ffffffffffffffffffffffffffffffffffffffff169050816000806101000a81548173ffffffffffffffffffffffffffffffffffffffff021916908373ffffffffffffffffffffffffffffffffffffffff1602179055508173ffffffffffffffffffffffffffffffffffffffff168173ffffffffffffffffffffffffffffffffffffffff167f8be0079c531659141344cd1fd0a4f28419497f9722a3daafe3b4186f6b6457e060405160405180910390a35050565b600033905090565b6040518060400160405280600073ffffffffffffffffffffffffffffffffffffffff16815260200160006004811115610ed257610ed1611158565b5b81525090565b6000604051905090565b600080fd5b600080fd5b6000601f19601f8301169050919050565b7f4e487b7100000000000000000000000000000000000000000000000000000000600052604160045260246000fd5b610f3582610eec565b810181811067ffffffffffffffff82111715610f5457610f53610efd565b5b80604052505050565b6000610f67610ed8565b9050610f738282610f2c565b919050565b600067ffffffffffffffff821115610f9357610f92610efd565b5b602082029050919050565b600080fd5b6000819050919050565b610fb681610fa3565b8114610fc157600080fd5b50565b600081359050610fd381610fad565b92915050565b6000610fec610fe784610f78565b610f5d565b9050806020840283018581111561100657611005610f9e565b5b835b8181101561102f578061101b8882610fc4565b845260208401935050602081019050611008565b5050509392505050565b600082601f83011261104e5761104d610ee7565b5b600561105b848285610fd9565b91505092915050565b600060a0828403121561107a57611079610ee2565b5b600061108884828501611039565b91505092915050565b600073ffffffffffffffffffffffffffffffffffffffff82169050919050565b6000819050919050565b60006110d66110d16110cc84611091565b6110b1565b611091565b9050919050565b60006110e8826110bb565b9050919050565b60006110fa826110dd565b9050919050565b61110a816110ef565b82525050565b60006020820190506111256000830184611101565b92915050565b60006020828403121561114157611140610ee2565b5b600061114f84828501610fc4565b91505092915050565b7f4e487b7100000000000000000000000000000000000000000000000000000000600052602160045260246000fd5b6005811061119857611197611158565b5b50565b60008190506111a982611187565b919050565b60006111b98261119b565b9050919050565b6111c9816111ae565b82525050565b6111d881610fa3565b82525050565b60006040820190506111f360008301856111c0565b61120060208301846111cf565b9392505050565b600061121282611091565b9050919050565b61122281611207565b82525050565b600060208201905061123d6000830184611219565b92915050565b600060208201905061125860008301846111cf565b92915050565b61126781611207565b82525050565b611276816111ae565b82525050565b604082016000820151611292600085018261125e565b5060208201516112a5602085018261126d565b50505050565b60006040820190506112c0600083018461127c565b92915050565b6112cf81611207565b81146112da57600080fd5b50565b6000813590506112ec816112c6565b92915050565b60006020828403121561130857611307610ee2565b5b6000611316848285016112dd565b91505092915050565b7f4e487b7100000000000000000000000000000000000000000000000000000000600052603260045260246000fd5b60008151905061135d81610fad565b92915050565b60006020828403121561137957611378610ee2565b5b60006113878482850161134e565b91505092915050565b600082825260208201905092915050565b7f596f757220746f6b656e2062616c616e6365206d75737420626520677265617460008201527f6572207468616e2074686520616d6f756e7420796f752061726520747279696e60208201527f6720746f206465706f7369740000000000000000000000000000000000000000604082015250565b6000611423604c83611390565b915061142e826113a1565b606082019050919050565b6000602082019050818103600083015261145281611416565b9050919050565b600060408201905061146e6000830185611219565b61147b60208301846111cf565b9392505050565b60008115159050919050565b61149781611482565b81146114a257600080fd5b50565b6000815190506114b48161148e565b92915050565b6000602082840312156114d0576114cf610ee2565b5b60006114de848285016114a5565b91505092915050565b60006060820190506114fc6000830186611219565b6115096020830185611219565b61151660408301846111cf565b949350505050565b7f4e487b7100000000000000000000000000000000000000000000000000000000600052601160045260246000fd5b600061155882610fa3565b915061156383610fa3565b925082820190508082111561157b5761157a61151e565b5b92915050565b7f4f776e61626c653a206e6577206f776e657220697320746865207a65726f206160008201527f6464726573730000000000000000000000000000000000000000000000000000602082015250565b60006115dd602683611390565b91506115e882611581565b604082019050919050565b6000602082019050818103600083015261160c816115d0565b9050919050565b7f4f776e61626c653a2063616c6c6572206973206e6f7420746865206f776e6572600082015250565b6000611649602083611390565b915061165482611613565b602082019050919050565b600060208201905081810360008301526116788161163c565b905091905056fea2646970667358221220424b09424423f7af9a3ba1f8ef24d2df32ff28cf604270aa936e6381736464a564736f6c63430008110033",
  "linkReferences": {},
  "deployedLinkReferences": {}
}